:020000040800F2
:10000000E806002049010008C9220008DB1B00089F
:10001000C52200083D030008412700080000000039
:10002000000000000000000000000000F9220008AD
:100030004103000800000000CD220008FB22000858
:100040006301000863010008630100086301000800
:1000500063010008630100086301000863010008F0
:1000600063010008630100086301000863010008E0
:1000700063010008630100086301000863010008D0
:1000800063010008630100086301000863010008C0
:1000900063010008630100086301000843030008CE
:1000A00063010008630100086301000863010008A0
:1000B0006301000863010008630100086301000890
:1000C0006301000863010008630100086301000880
:1000D000630100083127000863010008630100087C
:1000E0006301000863010008630100086301000860
:1000F0006301000863010008630100086301000850
:10010000630100086301000863010008630100083F
:10011000630100086301000863010008630100082F
:10012000630100086301000863010008630100081F
:10013000DFF810D000F06EF800480047312C0008BE
:10014000AFF30080E80600200648804706480047D5
:10015000FEE7FEE7FEE7FEE7FEE7FEE7FEE7FEE777
:10016000FEE7FEE76923000831010008202A04DBCE
:10017000203A21FA02F00021704721FA02F3D04020
:10018000C2F120029140084319467047D2B201E003
:1001900000F8012B491EFBD270470022F6E710B58C
:1001A00013460A4604461946FFF7F0FF204610BDE5
:1001B0002DE9F05F0546002092469B46884606469C
:1001C000814640241BE02846414647462246FFF729
:1001D000CDFF53465A46C01A914110D311461846D6
:1001E000224600F029F82D1A67EB01084F462246F7
:1001F0000120002100F020F817EB00094E41201EDD
:10020000A4F10104DFDC484631462A464346BDE8F6
:10021000F09F0000064C074D06E0E06840F0010347
:1002200094E8070098471034AC42F6D3FFF784FFF8
:10023000842C0008A42C0008202A04DB203A00FAB1
:1002400002F1002070479140C2F1200320FA03F32D
:10025000194390407047000038B514A002F072FABC
:1002600017A002F06FFA03226946082001F008FF88
:100270009DF802009DF8011040EA012445F66B202C
:1002800084420ED002208DF800005A208DF8010023
:100290006B208DF8020003226946082001F01EFF42
:1002A00003E09DF800000A49087038BD626F6F7462
:1002B0006C6F616465722073746172740A0000006F
:1002C000636865636B207570646174650A00000083
:1002D0001E00002010B501F083FD10BD10B50C48C4
:1002E0000078012803D10BA002F02CFA0EE0084898
:1002F0000078022803D109A002F024FA06E004489D
:100300000078032802D108A002F01CFA10BD0000FA
:100310001E0000205570646174650A004E6F2075E0
:1003200070646174650A000052657365740A0000A8
:1003300010B540F6B83000F0D1F910BD00BFFEE7AF
:10034000704710B5202000F0B7FA10BD72B600BF9C
:10035000FEE700000021074AD1610749096941F021
:100360000401054A11611146096941F0400111611A
:1003700070470000C8000020002002400021074A0A
:10038000D1610749096941F00201054A116111462D
:100390004861096941F0400111617047C8000020BF
:1003A000002002400022054BDA61054A126942F042
:1003B0000102034B1A61018070470000C800002051
:1003C0000020024000201E49C96801F0100139B127
:1003D0001C49C96941F002011A4AD16140F010007C
:1003E0001749C96801F0040139B11649C96941F0DA
:1003F0000101144AD16140F004001149C96901F0BA
:10040000010169B10F49C96941F004010D4AD16187
:1004100000BF0B49C96921F00101094AD16100BF40
:1004200000BF40F20111884206D10549C96921F097
:100430000101034AD16101E00149C86000BF704772
:1004400000200240C800002070B5044600F0F0FB18
:10045000054609E0601C38B124B100F0E9FB401BFF
:10046000A04201D9032070BD1248C06800F001000D
:100470000028EFD10F48C06800F0200020B100BF75
:1004800020200C49C86000BF0A48C06800F0100076
:1004900048B90848C06900F0010020B90548C068A3
:1004A00000F0040018B1FFF78DFF0120DBE700200A
:1004B000D9E70000002002400146002291F8210007
:1004C000022808D00420886300BF002081F82000A3
:1004D00000BF012070470868006820F00E000B681C
:1004E00018600868006820F001000B68186091F837
:1004F000403001209840CB6B5860012081F82100EA
:1005000000BF002081F8200000BF1046E2E7000095
:1005100070B50446002594F82100022803D0042079
:10052000A0630125C1E02068006820F00E0021686A
:1005300008602068006820F00100216808605C49BC
:100540002068884252D95A4978392068884201D1B6
:10055000012047E0564964392068884201D11020C3
:1005600040E0534950392068884201D1801539E074
:100570004F493C392068884201D1801432E04C490F
:1005800028392068884202D14FF480302AE0484957
:1005900014392068884202D14FF4801022E0444987
:1005A0002068884201D140041CE04249206888420A
:1005B00001D1012016E03F4914312068884201D161
:1005C00010200FE03B4928312068884201D1801576
:1005D00008E038493C312068884201D1801401E0AC
:1005E0004FF480303349091F086051E030497839B1
:1005F0002068884201D1012047E02D4964392068F4
:10060000884201D1102040E02949503920688842B1
:1006100001D1801539E026493C392068884201D152
:10062000801432E0224928392068884202D14FF4F0
:1006300080302AE01E4914392068884202D14FF4E4
:10064000801022E01A492068884201D140041CE051
:1006500018492068884201D1012016E0154914315B
:100660002068884201D110200FE01249283120680B
:10067000884201D1801508E00E493C31206888424B
:1006800001D1801401E04FF480300949803948607D
:10069000012084F8210000BF002084F8200000BF62
:1006A000606B10B12046616B8847284670BD000022
:1006B000800002400804024010B54FF0FF300649A8
:1006C000086100200861401EC8600020C86000F07A
:1006D000FBFA002010BD00000010024070B5044677
:1006E00000F0A6FA06462546681C10B104480078BA
:1006F000054400BF00F09CFA801BA842FAD370BDED
:10070000080000202DE9F04104460E46012700258F
:1007100000BF2648007E012802D10220BDE8F081FA
:1007200001202249087600BF2068022813D14CF22C
:100730005030FFF789FE90BB0120FFF70BFE4CF213
:100740005030FFF781FE07461948006920F0040089
:100750001749086123E04CF25030FFF775FEF0B9FD
:100760004FF0FF303060A56812E02846FFF706FE24
:100770004CF25030FFF768FE07460D48006920F044
:1007800002000B4908610FB1356007E005F500650F
:10079000D4E9021001EBC020A842E6D800BF00BF98
:1007A00000200249087600BF3846B7E7C80000209D
:1007B000002002400348006940F0800001490861C0
:1007C00000207047002002402DE9FE4F05468B4671
:1007D00017469846012600240020029000BF2448B6
:1007E000007E012802D10220BDE8FE8F01202049B1
:1007F000087600BF4CF25030FFF726FE064686BB57
:10080000012D02D10120029006E0022D02D102202A
:10081000029001E00420029000241EE02201B9466B
:10082000C24648465146FFF7A1FC80B20190022023
:1008300000FB04B000900199FFF7B4FD4CF250307A
:10084000FFF702FE06460B48006920F00100094947
:10085000086106B104E0601CC4B202988442DDDB8A
:1008600000BF00BF00200249087600BF3046BBE74A
:10087000C80000200020024000200849096901F05A
:10088000800151B10649054A51600649516011463F
:10089000096901F0800101B1012070470020024088
:1008A00023016745AB89EFCD202802D10321014AFE
:1008B000117070471E00002010B5044604480068FF
:1008C000204020B1024804602046FFF7EDFF10BD34
:1008D000140401402DE9F847024600239C467BE1C1
:1008E0004FF0010808FA03F4D1F8008008EA040088
:1008F000A0427DD1DFF8F4A2D1F80480A8EB0A0968
:10090000D0453AD014DCB8F1030F50D009DCB8F16F
:10091000000F31D0B8F1010F1CD0B8F1020F49D14E
:1009200020E0B8F1110F18D0B8F1120F42D11EE03B
:10093000B9F5881F25D006DCB9F5803F20D0B9F580
:10094000801F37D11AE0B9F5001F18D0B9F5041F80
:1009500030D117E0D1F80CC02DE0D1F80C8008F1AF
:10096000040C28E0D1F80C8008F1080C23E0D1F841
:100970000C8008F10C0C1EE000BF00BF00BF00BFE0
:1009800000BF00BFD1F80880B8F1000F02D14FF0CE
:10099000040C0BE0D1F80880B8F1010F03D14FF03F
:1009A000080C146102E04FF0080C546103E04FF0B2
:1009B000000C00E000BF00BFFF2801D8904601E016
:1009C00002F104084646FF2802D84FEA830803E0F4
:1009D000A3F108084FEA88084746D6F800804FF090
:1009E0000F0909FA07F928EA09080CFA07F900E0E3
:1009F0007AE048EA0908C6F80080D1F8048008F0D7
:100A00008058B8F1805F6FD100BFDFF8E481D8F87B
:100A1000188048F00108DFF8D891C9F81880C84656
:100A2000D8F8188008F00108CDF8008000BF00BF9A
:100A30004FEAB9384FEA930958F829504FEA8378BA
:100A40004FEA18794FF00F0808FA09F825EA080567
:100A5000DFF8A081424502D14FF0000824E0DFF822
:100A60009881424502D14FF001081DE0DFF88C81EA
:100A7000424502D14FF0020816E0DFF8848142457A
:100A800002D14FF003080FE0DFF87881424502D130
:100A90004FF0040808E0DFF87081424502D14FF0C2
:100AA000050801E04FF006084FEA83794FEA19790B
:100AB00008FA09F848EA0505DFF850814FEA93097A
:100AC00048F82950D1F8048008F48018B8F5801F40
:100AD0000BD1DFF83C81D8F8008048EA0008DFF845
:100AE0003091C9F800800AE075E0DFF82481D8F879
:100AF000008028EA0008DFF81891C9F80080D1F8D2
:100B0000048008F40018B8F5001F0ED1DFF800814A
:100B100008F10408D8F8008048EA0008DFF8F090EF
:100B200009F10409C9F800800DE0DFF8E48008F15C
:100B30000408D8F8008028EA0008DFF8D49009F10A
:100B40000409C9F80080D1F8048008F40038B8F529
:100B5000003F0ED1DFF8B880A8F10408D8F8008073
:100B600048EA0008DFF8A890A9F10409C9F8008054
:100B70000DE0DFF89C80A8F10408D8F8008028EA8E
:100B80000008DFF88C90A9F10409C9F80080D1F8B9
:100B9000048008F48038B8F5803F0ED1DFF870800B
:100BA000A8F10808D8F8008048EA0008DFF860904B
:100BB000A9F10809C9F800800DE0DFF85480A8F118
:100BC0000808D8F8008028EA0008DFF84490A9F166
:100BD0000809C9F800805B1CD1F8008028FA03F8E6
:100BE000B8F1000F7FF47CAEBDE8F887000011106B
:100BF0000010024000080140000C014000100140BC
:100C00000014014000180140001C01400800014090
:100C100008040140024693680B400BB1012000E03C
:100C2000002070470AB1016101E00B0403617047C5
:100C30000148006870470000000000200348006879
:100C40000349097808440149086070470000002002
:100C50000800002010B50848006840F01000064960
:100C60000860032000F0AEF80F2000F007F800F055
:100C70002DF8002010BD00000020024070B5044691
:100C80000E4800784FF47A71B1FBF0F00C49096816
:100C9000B1FBF0F5284600F0A1FC08B1012070BDC1
:100CA000102C07D200222146501E00F04DF80548B6
:100CB000046001E00120F2E70020F0E708000020D6
:100CC0000C000020040000207047000008B500BFA1
:100CD0001348806940F00100114988610846806925
:100CE00000F00100009000BF00BF00BF0846C069CF
:100CF00040F08050C8610846C06900F08050009004
:100D000000BF00BF052000F05DF800BF054948683E
:100D100020F0E06040F00070486000BF08BD0000B7
:100D2000001002400000014001460846002809DB8F
:100D300000F01F0301229A4043099B0003F1E023C6
:100D4000C3F8002100BF70472DE9F05F80460D46D3
:100D50001646002701F006FD074639462A46334667
:100D600001F00700C0F1070ABAF1040F02D94FF0F1
:100D7000040A01E0C0F1070AD14600F1040ABAF101
:100D8000070F02D24FF0000A01E0A0F1030AD44697
:100D90004FF0010A0AFA09FAAAF1010A0AEA020A5C
:100DA0000AFA0CFA4FF0010B0BFA0CFBABF1010B3A
:100DB0000BEA030B4AEA0B042146404601F0DAFC39
:100DC000BDE8F09F00BF00F00702064B19684FF620
:100DD000FF031940044B0B4343EA0221014B196006
:100DE00000BF70470CED00E00000FA0570B5044646
:100DF0000D460CB9012070BD5A48006800F007008C
:100E0000A8420ED25748006820F0070028435549F1
:100E100008600846006800F00700A84201D00120E1
:100E2000E9E7207800F0020002281DD1207800F0C8
:100E30000400042805D14C48406840F4E0604A4969
:100E40004860207800F00800082805D1464840682E
:100E500040F46050444948604348406820F0F00046
:100E6000A168084340494860207800F0010078B349
:100E70006068012806D13C48006800F4003090B951
:100E80000120B8E76068022806D13748006800F002
:100E9000007040B90120AEE73348006800F002005E
:100EA00008B90120A7E73048406820F003006168D6
:100EB00008432D494860FFF7BBFE064609E0FFF7EF
:100EC000B7FE801B41F28831884202D9032092E7A5
:100ED00007E02548406800F00C006168B0EB810F26
:100EE000EDD12048006800F00700A8420ED91D4847
:100EF000006820F0070028431A4908600846006887
:100F000000F00700A84201D0012074E7207800F02B
:100F10000400042807D11448406820F4E060E16828
:100F2000084311494860207800F00800082808D1DB
:100F30000D48406820F46050216940EAC1000A4928
:100F4000486000F03FF808494968C1F30311074AB7
:100F5000515CC8400649086006480068FFF78EFEED
:100F6000002048E700200240001002406A2C0008E0
:100F70000C000020040000200148006870470000B9
:100F80000C00002000B5FFF7F7FF04494968C1F3E2
:100F90000221034A515CC84000BD0000001002401D
:100FA0007A2C000800B5FFF7E7FF04494968C1F350
:100FB000C221034A515CC84000BD0000001002403D
:100FC0007A2C000870B500210022002400230020A4
:100FD000134D696801F00C05F5B1042D02D0082D00
:100FE00019D101E00F4819E00F4DC1F38346AB5D05
:100FF00001F4803555B10A4D6D68C5F340450B4E7F
:10100000725D084D5D43B5FBF2F402E0084D03FB51
:1010100005F4204602E000BF024800BF00BF70BDDB
:101020000010024000127A00582C0008682C0008BA
:1010300000093D00F8B504460CB90120F8BD207840
:1010400000F00100002878D0F848406800F00C005B
:1010500004280CD0F548406800F00C00082811D195
:10106000F248406800F48030B0F5803F0AD1EF4884
:10107000006800F4003000285FD0606800285CD170
:101080000120DBE700BF6068B0F5803F06D1E7488C
:10109000006840F48030E549086028E0606858B98D
:1010A000E248006820F48030E049086008460068A3
:1010B00020F4802008601AE06068B0F5A02F0BD102
:1010C000DA48006840F48020D84908600846006883
:1010D00040F4803008600AE0D448006820F4803092
:1010E000D24908600846006820F48020086000BFEC
:1010F000606888B1FFF79CFD054606E0FFF798FDA4
:10110000401B642801D9032098E7C848006800F410
:1011100000300028F2D010E0FFF78AFD054606E017
:10112000FFF786FD401B642801D9032086E7BF48EE
:10113000006800F400300028F2D1207800F00200AE
:10114000022857D1B948406800F00C0050B1B748A8
:10115000406800F00C00082818D1B448406800F43A
:10116000803098B9B148006800F0020020B12069D1
:10117000012801D0012061E7AC48006820F0F800A8
:10118000616940EAC100A949086033E02069E8B11B
:101190000120A7490860FFF74BFD054606E0FFF771
:1011A00047FD401B022801D9032047E79F480068FC
:1011B00000F002000028F2D09C48006820F0F800FF
:1011C000616940EAC1009949086013E0002098492C
:1011D0000860FFF72DFD054606E0FFF729FD401BDF
:1011E000022801D9032029E79048006800F0020096
:1011F0000028F2D1207800F0080008282DD1A0693D
:10120000B8B101208B490860FFF712FD054606E0E2
:10121000FFF70EFD401B022801D903200EE783488B
:10122000406A00F002000028F2D0012001F050F8DE
:1012300013E000207F490860FFF7FAFC054606E04E
:10124000FFF7F6FC401B022801D90320F6E6774899
:10125000406A00F002000028F2D1207800F004007B
:10126000042873D100277148C06900F0805070B91C
:1012700000BF6E48C06940F080506C49C8610846A4
:10128000C06900F08050009000BF00BF01276A488D
:10129000006800F48070B0B96748006840F480705E
:1012A00065490860FFF7C4FC054606E0FFF7C0FC8F
:1012B000401B642801D90320C0E65F48006800F4A1
:1012C00080700028F2D000BFE068012806D157489E
:1012D000006A40F001005549086227E0E06858B90B
:1012E0005248006A20F00100504908620846006A2E
:1012F00020F00400086219E0E06805280BD14B4893
:10130000006A40F00400494908620846006A40F05B
:10131000010008620AE04548006A20F001004349E4
:1013200008620846006A20F00400086200BFE06816
:10133000A0B1FFF77DFC054609E0FFF779FC401BF3
:1013400041F28831884202D9032077E622E037480B
:10135000006A00F002000028EFD012E0FFF768FCFE
:10136000054608E0FFF764FC401B41F288318842E3
:1013700001D9032062E62D48006A00F0020000282F
:10138000F0D1012F05D12948C06920F080502749AC
:10139000C86100BFE069C8B32448406800F00C0091
:1013A000082860D0E069022848D10020204908665A
:1013B000FFF73EFC054606E0FFF73AFC401B02281B
:1013C00001D903203AE61948006800F000700028AF
:1013D000F2D1206AB0F5803F07D11448406820F46C
:1013E0000030A168084311494860D4E90801084366
:1013F0000E49496821F4741108430C4948600120E2
:101400000B490866FFF714FC054607E03DE0FFF7CF
:101410000FFC401B022801D903200FE60348006897
:1014200000F000700028F2D02FE000000010024011
:1014300000004242800442420070004000201449F3
:101440000866FFF7F5FB054606E0FFF7F1FB401BDA
:10145000022801D90320F1E50E48006800F0007071
:101460000028F2D111E0E069012800D1E6E5094841
:10147000466806F48031206A814204D106F4701176
:10148000606A814201D00120D8E50020D6E5000045
:10149000000042420010024010B504460CB9012081
:1014A00010BD606A38B96068B0F5827F00D105E090
:1014B0000021E16102E00021216161610021A1625E
:1014C00094F8510028B9002084F85000204600F01C
:1014D00043F8022084F851002068006820F04000A2
:1014E00021680860A08800F48270218901F4044119
:1014F0000843A18901F400610843217C01F0020145
:101500000843217D01F001010843218B01F40071A2
:101510000843217F01F0380108432021095D01F0D3
:1015200080010843218D01F40051084321680860BF
:101530000421A06901EA1040216848602068C06960
:1015400020F400602168C86100206065012084F8F3
:1015500051000020A4E7000010B586B0044600202A
:1015600002900390049005901949206888422DD17B
:1015700000BF1848806940F48050164988610846C9
:10158000806900F48050019000BF00BF00BF084692
:10159000806940F0040088610846806900F004001A
:1015A000019000BF00BFA020029002200390032002
:1015B000059002A90848FFF78DF94020029000200D
:1015C0000390049002A90448FFF784F906B010BD07
:1015D00000300140001002400008014070B5044690
:1015E0002546681EB0F1807F01D301200FE0681E00
:1015F0004FF0E02148610F214FF0FF3001F0BAF8C1
:1016000000204FF0E021886107200861002070BDB4
:10161000F8B504460E46174694F8420020282ED10D
:1016200006B10FB90120F8BD0120206300206063DE
:101630003A463146204600F0E5FF0546EDB9206BFD
:10164000012819D100BF0020009020680068009098
:1016500020684068009000BF00BF00BF00BF216845
:101660000C3151E8001F41F0100021680C3141E8B5
:101670000002002AF3D100E001252846D3E702202A
:10168000D1E7000038B504460D461F49206888425E
:1016900039D1FFF7CDFA1D4908601D4805801D4866
:1016A00000881B49098808441A490880FFF7E4F8B4
:1016B00000F0FEFB00F032FCFFF77CF84FF4007105
:1016C0001548FEF76AFD00BF00200090134800682F
:1016D00000680090114800684068009000BF00BF9B
:1016E00000BF002000900D480068006800900B4883
:1016F00000684068009000BF00BF4FF400720649C8
:101700000648FFF785FF38BD00380140180000206B
:101710001000002012000020E80000207C000020C3
:10172000704700002DE9F84F0446206805682068DE
:10173000C668206847694FF00009CA4605F00F09DE
:10174000B9F1000F0AD105F0200038B106F02000F1
:1017500020B1204600F059FEBDE8F88FB9F1000F26
:101760007BD007F0010018B906F49070002874D0FF
:1017700005F0010030B106F4807018B1606C40F0E3
:101780000100606405F0040030B107F0010018B1F9
:10179000606C40F00200606405F0020030B107F0B8
:1017A000010018B1606C40F00400606405F00800AE
:1017B00048B106F0200010B907F0010018B1606CC4
:1017C00040F008006064606C002845D005F02000FF
:1017D00028B106F0200010B1204600F016FE206867
:1017E0004069C0F3801A606C00F0080010B9BAF1CB
:1017F000000F2CD0204600F0C2FD2068406900F0A8
:10180000400000B300BF00BF2168143151E8001F41
:1018100021F040002168143141E80002002AF3D190
:1018200000BFE06B50B17748E16B4863E06BFEF7B7
:101830006FFE88B1E06B416B88470DE02046FFF7F3
:101840006FFF09E009E02046FFF76AFF04E0204649
:10185000FFF766FF002060647EE7206B012877D1E8
:1018600005F01000002873D006F010000028FAD010
:1018700000BF002000902068006800902068406849
:10188000009000BF00BF2068406900F040000028C1
:101890005FD0E06B006840681FFA80F8B8F1000F75
:1018A00055D0A08D404552DDA4F82E80E06B8069B4
:1018B000202843D000BF00BF21680C3151E8001F31
:1018C00021F4807021680C3141E80002002AF3D134
:1018D00000BF00BF00BF2168143151E8001F21F094
:1018E00001002168143141E80002002AF3D100BF51
:1018F00000BF00BF2168143151E8001F21F04000F3
:101900002168143141E80002002AF3D100BF2020F1
:1019100084F842000020206300BF00BF21680C3122
:1019200051E8001F21F0100021680C3141E800024D
:10193000002AF3D100BFE06BFEF7BEFD022060631A
:10194000A08DE28D801A81B22046FFF79BFE03E74F
:1019500042E0A08DE18D401A1FFA80F8E08DD0B3EF
:10196000B8F1000F37D000BF00BF21680C3151E83B
:10197000001F21F4907021680C3141E80002002A18
:10198000F3D100BF00BF00BF2168143151E8001F30
:1019900021F001002168143141E80002002AF3D14E
:1019A00000BF202084F842000020206300BF00BF59
:1019B00021680C3151E8001F21F0100021680C3122
:1019C00041E80002002AF3D100BF022060634146D3
:1019D0002046FFF757FEBFE605F0800030B106F065
:1019E000800018B1204600F02DFEB5E605F040005D
:1019F00030B106F0400018B1204600F0F6FCABE62E
:101A000000BFA9E66B23000810B504460CB90120FD
:101A100010BDA06900B100E000BF94F8410028B9F2
:101A2000002084F84000204600F02AF8242084F8A2
:101A300041002068C06820F400502168C86020463A
:101A400000F062FD2068006920F490402168086180
:101A50002068406920F02A00216848612068C06839
:101A600040F400502168C86000206064202084F8A1
:101A7000410084F842000020606300BFC8E7000016
:101A800010B586B0044600200290039004900590A3
:101A90001E492068884236D100BF1D48806940F445
:101AA00080401B4988610846806900F480400190AD
:101AB00000BF00BF00BF0846806940F00400886195
:101AC0000846806900F00400019000BF00BF48157F
:101AD0000290022003900320059002A90D48FEF712
:101AE000F9FE4FF48060029000200390049002A958
:101AF0000848FEF7EFFE002211462520FFF724F9E3
:101B00002520FFF711F906B010BD00000038014094
:101B1000001002400008014070472DE9F84F0446CC
:101B20000E46174699464FF0000A94F841002028C7
:101B300050D106B117B90120BDE8F88F00206064CC
:101B4000212084F84100FFF773F88246A784E784D8
:101B5000A068B0F5805F04D1206910B90025B046B7
:101B600002E035464FF000081EE053460022802177
:101B70002046CDF8009000F095FD20B1202084F89B
:101B800041000320D8E745B9B8F80000C0F30800C9
:101B90002168486008F1020803E02878216848605D
:101BA0006D1CE08C401EE084E08C0028DDD15346A3
:101BB000002240212046CDF8009000F073FD20B1B6
:101BC000202084F841000320B6E7202084F841005B
:101BD0000020B1E70220AFE7704700BFFEE700003A
:101BE00070B5054600240122D1022548FFF71AF8F6
:101BF00000261CE000224FF480512148FFF712F824
:101C0000022000F0E5F8012211031D48FFF70AF851
:101C10006006040E4FF400611948FEF7FBFF08B19F
:101C2000601CC4B2012000F0D3F8701CC6B2082EAC
:101C3000E0DB00224FF480511148FEF7F3FF2DB98D
:101C40000122D1020E48FEF7EDFF05E000224FF41D
:101C500000610B48FEF7E6FF022000F0B9F8012210
:101C600011030748FEF7DEFF022000F0B1F8002262
:101C70004FF480510248FEF7D5FF204670BD0000AA
:101C80000010014070B5044600224FF480511748FF
:101C9000FEF7C8FF002525E0E00928B10122D102A6
:101CA0001248FEF7BFFF05E000224FF400610F4825
:101CB000FEF7B8FF6006040E022000F089F801224A
:101CC00011030A48FEF7AEFF022000F081F800225F
:101CD0004FF480510548FEF7A5FF022000F078F888
:101CE000681CC5B2082DD7DB70BD00000010014094
:101CF00010B50122D1020D48FEF794FF0122110315
:101D00000A48FEF78FFF042000F062F800224FF42B
:101D100000610648FEF786FF042000F059F8002213
:101D20004FF480510148FEF77DFF10BD00100140C7
:101D300010B500224FF480510E48FEF773FF0022C9
:101D40004FF400610B48FEF76DFF042000F040F8EF
:101D5000012211030748FEF765FF042000F038F860
:101D60000122D1020348FEF75DFF042000F030F8A5
:101D700010BD00000010014010B500240122D10266
:101D80001248FEF74FFF012000F022F80122110354
:101D90000E48FEF747FF012000F01AF807E0601C2C
:101DA000C4B2FA2C03DDFFF7C3FF012010BD4FF4CE
:101DB00000610648FEF72EFF0028F0D100224FF404
:101DC00080510248FEF72EFF0020EFE7001001408F
:101DD000002101E000BF491CB1EBC00FFAD37047EE
:101DE00070B5174805684468294616A000F0AAFC9B
:101DF00021461AA000F0A6FC280C0004B0F1005FF8
:101E000004D01DA000F09EFC012070BD0C4884424F
:101E100002D31E48844204D91DA000F093FC012087
:101E2000F3E772B6FEF748FC00BF85F3088800BFF1
:101E300003481E4908602646B0470020E5E7000039
:101E4000004000086170705F737461636B5F707451
:101E5000723A203078253038580D0A006170705F72
:101E600072657365745F68616E646C653A20307882
:101E7000253038580D0A0000737461636B2061646B
:101E80006472206572726F720D0A0000000008080B
:101E900072657365742068616E646C65206164644A
:101EA00072206572726F720D0A00000008ED00E08A
:101EB00070B586B000240025002013E0144A126893
:101EC000144B1A44115CFF290AD00124104A1268ED
:101ED0001A4402440E4B1B88C3F30A03D51A05E0CB
:101EE000411C88B20C4909888842E7DB00BF64B115
:101EF000002002900120039004950590002001909D
:101F000001A902A8FEF7FEFB00BF06B070BD0000ED
:101F100014000020004000081000002010B52749E0
:101F20000988274A1278881800EBD0714910A0EB75
:101F30004101D1B92248007850B100F073F821482E
:101F400001681E480088401C08441E49086008E0DB
:101F500000F03EF81B4800681849098808441949F0
:101F6000086000201649087027E01548007880B105
:101F700000F058F811480088401E1349085C1349C6
:101F80000870104800680D49098808440D49086028
:101F900010E000F01DF809480088401E0A49085C5E
:101FA0000A49087005480088401E06490968084427
:101FB0000449086001200249087010BD100000208B
:101FC0001C00002014000020E80000201D0000205C
:101FD00070B5002418E00F4800680F49084406193E
:101FE000601C0E49098888420CDA0D48015D0246E2
:101FF000601C105C41EA00252A460023314601207E
:10200000FEF7E2FBA01C84B2044800888442E2DBB5
:1020100070BD0000140000200040000810000020E7
:10202000E800002070B500241AE01048006810494C
:102030000844061934B90F48005D0F49097841EA90
:10204000002505E0601E0B49085C095D40EA01259A
:102050002A46002331460120FEF7B6FBA01C84B2BD
:10206000064800888442E0DB70BD000014000020B8
:1020700000400008E80000201D00002010000020A3
:102080002DE9F04107460D461646FFF731FEA02028
:10209000FFF7F8FDFFF770FE3846FFF7F3FDFFF797
:1020A0006BFEFFF725FEA120FFF7ECFDFFF764FEB6
:1020B00000240DE0701EA04204D10020FFF790FD27
:1020C000285503E00120FFF78BFD2855601C84B2E2
:1020D000B442EFDBFFF72CFEBDE8F0812DE9F047BD
:1020E00004460F4615464FF0000938E02046E11738
:1020F00004EB5171C910A4EBC101C1F1080101F059
:10210000FF0A554501DA284600E05046C6B2FFF7FF
:10211000EFFDA020FFF7B6FDFFF72EFE2046FFF7EC
:10212000B1FDFFF729FE4FF000080CE049464A1CBC
:102130001FFA82F9785CFFF7A5FDFFF71DFE08F195
:10214000010000F0FF08B045F0DBFFF7F1FD0520CE
:10215000FEF7C4FAA019C4B2A81B85B200BF002DB7
:10216000C4DCBDE8F087000000B585B00020019018
:1021700002900390049000BF2F48806940F0100047
:102180002D4988610846806900F01000009000BF6A
:1021900000BF00BF0846806940F020008861084603
:1021A000806900F02000009000BF00BF00BF08461B
:1021B000806940F0040088610846806900F00400EE
:1021C000009000BF00BF012204211C48FEF72AFD39
:1021D00001224FF4C0511A48FEF724FD042001905B
:1021E00001200290002003900320049001A91348CD
:1021F000FEF770FB2020019012480290012003900E
:1022000001A90F48FEF766FB4FF4C0500190112062
:102210000290002003900220049001A90848FEF7D4
:1022200059FB002211461720FEF78EFD1720FEF7FE
:102230007BFD05B000BD0000001002400008014019
:10224000001001400000211010B50E480E49086032
:102250004FF48270486000210B488160C1600161C9
:1022600041614FF4007181611021C161002101625F
:10227000416281620A21C162FFF70EF908B1FEF7DF
:1022800065F810BD003001402400002010B50B4857
:102290000B4908604FF416504860002108488160DF
:1022A000C16001610C21416100218161C161FFF7C1
:1022B000ABFB08B1FEF74AF810BD00000038014042
:1022C0007C00002000BFFEE700BFFEE77047000073
:1022D00008B508490968C9084FF47A72B1FBF2F1F0
:1022E0004143009100BF00BF00994A1E009200299F
:1022F000F9D108BD0C000020704710B5FEF79EFC18
:1023000010BD00B58FB0282105A8FDF746FF1421A8
:102310006846FDF742FF012005900004069000206A
:1023200007900120099002200C90C1030D914FF4F9
:10233000E0110E9105A8FEF77DFE08B1FEF706F844
:102340000F20009002200190002002904FF4806046
:1023500003900020049002216846FEF747FD08B173
:10236000FDF7F4FF0FB000BD704770B505466C6A0D
:102370000020E085E0842046FFF7D2F970BD00BF61
:1023800000BF02680C3252E8002F22F490710268FC
:102390000C3242E80013002BF3D100BF00BF00BF96
:1023A0000268143252E8002F22F001010268143250
:1023B00042E80013002BF3D100BF016B01290ED1BD
:1023C00000BF00BF02680C3252E8002F22F010015B
:1023D00002680C3242E80013002BF3D100BF202129
:1023E00080F8421000210163704710B50446206850
:1023F000C06820F040002168C860202084F84100B7
:102400002046FFF7E9FB002010BDF8B5044694F81C
:102410004200222875D1A068B0F5805F0CD12069F8
:1024200050B90025A66A20684068C0F308003080D3
:10243000A06A801CA06215E0A56A0026A068B0F51D
:10244000805F03D0A06828B9206918B92068406867
:10245000287004E02068406800F07F002870A06ABF
:10246000401CA062E08D401E80B2E085002846D16D
:102470002068C06820F020002168C8602068C0681B
:1024800020F480702168C8602068406920F0010055
:1024900021684861202084F8420000206063206B9E
:1024A000012826D10020206300BF00BF21680C3125
:1024B00051E8001F21F0100021680C3141E80002B2
:1024C000002AF3D100BF2068006800F01000102837
:1024D0000AD100BF002000902068006800902068AA
:1024E0004068009000BF00BFA18D2046FFF7CAF8EA
:1024F00002E02046FFF710FB0020F8BD01E00020BD
:10250000FBE70220F9E7000070B50446216809697D
:1025100021F44051E2681143226811612269A168E7
:102520001143626941EA02052168C96841F20C62FF
:10253000914329432268D1602168496921F440719F
:10254000A2691143226851612D4A2168914202D14A
:10255000FEF728FD01E0FEF715FD00EBC00101EBE1
:10256000001162689200B1FBF2F100EBC00202EBD5
:10257000001263689B00B2FBF3F26423B2FBF3F238
:1025800002EBC20303EB0212A1EB8201322202EB47
:1025900001116422B1FBF2F101F0F00100EBC00285
:1025A00002EB001263689B00B2FBF3F26423B2FB00
:1025B000F3F201EB021200EBC00101EB00116368C2
:1025C0009B00B1FBF3F100EBC00303EB0013666863
:1025D000B600B3FBF6F36426B3FBF6F303EBC306D6
:1025E00006EB0313A1EB8301322303EB01116423F8
:1025F000B1FBF3F101F00F0111442268916070BD4D
:102600000038014010B5034699629A85DA850020AA
:102610005864222083F84200186928B11868C068FD
:1026200040F480701C68E0601868406940F0010068
:102630001C6860611868C06840F020001C68E06099
:10264000002010BD014691F84100212828D188685A
:10265000B0F5805F0BD1086948B90A6A1088C0F3E9
:1026600008000B685860086A801C086205E00B6A65
:10267000581C086218780B685860C88C401E80B2DD
:10268000C88458B90868C06820F080000B68D8601A
:102690000868C06840F040000B68D86000207047B0
:1026A0000220FCE72DE9F84304460D4617469846FC
:1026B000089E31E0701C70B3FEF7BAFAA0EB080078
:1026C000B04200D816B90320BDE8F8832068C0687E
:1026D00000F00400F8B1802D1ED0402D1CD02068E1
:1026E0000068C0F3C000B0B100BF002000902068B7
:1026F0000068009020684068009000BF00BF20463E
:10270000FFF73DFE0820606400BF002084F8400011
:1027100000BF0120D8E7FFE7206800682840A842F2
:1027200001D1012000E00020B842C3D00020CBE757
:1027300010B50248FEF7F6FF10BD00007C00002037
:1027400000BFFEE70FB4054B10B503A9044A029879
:1027500000F034F810BC5DF814FB0000152C0008E4
:102760002000002002480068C0F3022070470000EB
:102770000CED00E010B5002804DB0A07130E054A33
:10278000135406E00A07140E034A00F00F031B1F40
:10279000D45410BD00E400E018ED00E002E008C8E9
:1027A000121F08C1002AFAD170477047002001E0CB
:1027B00001C1121F002AFBD1704700002DE9FF4F15
:1027C0008DB00F460546002606E025280BD0DDE932
:1027D0000F1290476D1C761C28780028F5D111B097
:1027E0003046BDE8F08F0024A246A1460122E94907
:1027F00000E0044315F8013F203B02FA03F00842D1
:10280000F7D128782A2810D06FF02F022878A0F16D
:102810003001092914D80AEB8A0102EB410144F086
:10282000020400EB010A6D1CF0E701CF5FEA000A29
:1028300003D544F40054CAF1000A44F002046D1CAC
:1028400028782E2817D115F8010F44F004042A28FF
:102850000ED06FF02F022878A0F1300109290AD894
:1028600009EB890102EB410100EB01096D1CF2E764
:1028700057F8049B6D1C28786C280FD006DC4C2878
:1028800017D068280DD06A2814D104E0742810D01D
:102890007A280FD10DE044F400140AE044F48014C7
:1028A00001E044F440146978814202D104F58014B7
:1028B0006D1C6D1C28786E281ED00CDC632830D06F
:1028C00004DC00288BD0582811D19FE0642867D001
:1028D00069280CD164E073282DD004DC6F2872D0F5
:1028E000702804D194E075286ED078286DD0DDE989
:1028F0000F129047761C4BE1C4F30250022806D019
:10290000032809D0042801CF09D0066040E101CF97
:10291000F117C0E900613BE101CF068038E10670A4
:1029200036E117F8040B8DF8000000208DF8010047
:10293000EB46012003E057F804BB4FF0FF3061077E
:102940004FF0000102D40DE008F10101884649452D
:102950000FDA8045F8DB1BF808100029F4D108E0F5
:1029600008F1010188468142FADB1BF808100029B2
:10297000F6D1DDE90F23AAEB08008146214600F0DD
:1029800031F9304400EB080604E0DDE90F121BF8D2
:10299000010B9047B8F10108F7D221464846F2E012
:1029A0000A21C4F302524FF0000B0891022A04D00E
:1029B00001CFC117032A09D00AE0FF1D27F007073E
:1029C000F7E8020108E02CE01EE01FE000B2C117AA
:1029D000042A01D140B2C117021E71F1000206DAC9
:1029E0000023D0EB030063EB01012D2202E022055E
:1029F00004D52B228DF82420012203E0E20701D028
:102A00002022F7E7904653E00A210BE0102109E06D
:102A100010214FF0000B44F004044FF00809089116
:102A200003E008214FF0000B0891C4F30252022A80
:102A300004D001CF0021032A06D006E0FF1D27F0B5
:102A40000707F7E8020103E080B2042A00D1C0B210
:102A50004FF0000822072BD52A78702A07D0DDF81E
:102A600020C08CF0100C5CEA0B0C05D00EE040226C
:102A70008DF82420012208E050EA010306D030231B
:102A80008DF824308DF8252002229046089B83F093
:102A9000080353EA0B030BD150EA010201D162078C
:102AA00006D530228DF824204FF00108A9F1010944
:102AB0002A78582A04D038A20B9208AA0A920BE06E
:102AC0003AA2F9E75B46089AFDF772FB0B9B9B5C09
:102AD0000A9A521E0A92137050EA0102F2D10A9821
:102AE000ADEB000000F1200B600702D524F4803428
:102AF00001E04FF00109D94502DDA9EB0B0000E030
:102B0000002000EB0B0141440890AAEB010AE0030E
:102B100006D4DDE90F232146504600F063F8064451
:102B20004FF0000908E009A911F80900DDE90F12CA
:102B3000904709F10109761CC145F4DBE0030CD58F
:102B4000DDE90F232146504600F04CF8064404E02E
:102B5000DDE90F1230209047761C0899481E089036
:102B60000029F5DC08E00A980A990078491C0A91C6
:102B7000DDE90F129047761CBBF10001ABF1010BB0
:102B8000F1DC21465046DDE90F2300F019F8064438
:102B90006D1C21E6092801003031323334353637D7
:102BA0003839616263646566000000003031323399
:102BB0003435363738394142434445460000000039
:102BC0002DE9F041044600251E461746880404D42A
:102BD00005E039462020B0476D1C641EF9D5284613
:102BE000BDE8F0812DE9F041044600251E469046DF
:102BF000C80301D5302700E02027880404D505E06C
:102C000041463846B0476D1C641EF9D52846BDE8DC
:102C1000F081000013B50C464FF6FF7301226946A0
:102C20000248FEF77AFF00981CBD00007C000020DF
:102C3000FEF710F8FFF765FBFFF796FAFFF726FBA4
:102C4000FFF702FBFDF708FBFDF772FBFDF746FB04
:102C5000FDF740FB00BFFEE7020304050607080975
:102C60000A0B0C0D0E0F10100102000000000000F6
:102C70000000010203040607080900000000010229
:102C800003040000A42C0008000000202400000021
:102C90009C270008C82C000824000020C40600005F
:102CA000AC27000800000000100000000100000038
:102CB00000127A0000000000000000000000000088
:082CC00000000200000000000A
:0400000508000131BD
:00000001FF
